:100000000C946D020C948A020C948A020C948A025D
:100010000C948A020C948A020C948A020C948A0230
:100020000C948A020C948A020C943A160C9475165D
:100030000C948A020C948A020C948A020C948A0210
:100040000C948A020C948A020C948A020C948A0200
:100050000C9443040C94770F0C948A020C948A023B
:100060000C948A020C948A020C948A020C948A02E0
:100070000C948A020C948A020C948A020C948A02D0
:100080000C948A020C948A020C948A020C948A02C0
:100090000C948A020C948A020C948A020C948A02B0
:1000A0000C948A020C948A020C948A02CF15CC1507
:1000B000C915C615C315C015BD15BA15B715B415A4
:1000C000B115AE15AB15A815A515A2159F159C1554
:1000D00099159615931590158D158A158715841504
:1000E00081157E157B157815751572156F156C15B4
:1000F00069156615631560155D155A155715541564
:1001000051154E154B154815451542153F153C1513
:1001100039153615331530152D152A1527152415C3
:1001200021151E151B151815151512150F15000193
:10013000000062011200020000740143000300008D
:10014000B7010401030904BB011402030904D1012E
:100150001603030904E9010C0001C11201803601F4
:1001600081361201000202000010C0167A0400015C
:100170000102030109024300020100C03209040028
:100180000001020201000524001001052401010103
:10019000042402060524060001070582031000401E
:1001A00009040100020A00000007050302400000E4
:1001B0000705840240000004030904140359006F7A
:1001C000007500720020004E0061006D00650000A7
:1001D00000160355005300420020005300650072D2
:1001E00000690061006C0000000C03310032003334
:1001F000003400350000006E616E00696E6600001C
:100200000000000000005F00000007000700147FEE
:10021000147F14242A7F2A12231308646236495556
:1002200022500005030000001C2241000041221C56
:100230000014083E081408083E080800503000006A
:100240000808080808006060000020100804023E4A
:100250005149453E00427F4000426151494621419B
:10026000454B311814127F1027454545393C4A4902
:10027000493001710905033649494936064949297A
:100280001E003636000000563600000814224100D9
:1002900014141414140041221408020151090632E6
:1002A0004979413E7E1111117E7F494949363E41CF
:1002B0004141227F4141221C7F494949417F09092F
:1002C00009013E4149497A7F0808087F00417F4182
:1002D000002040413F017F081422417F40404040C0
:1002E0007F020C027F7F0408107F3E4141413E7F28
:1002F000090909063E4151215E7F091929464649EF
:1003000049493101017F01013F4040403F1F2040EA
:10031000201F3F4038403F631408146307087008EB
:10032000076151494543007F414100020408102004
:100330000041417F0004020102044040404040006F
:100340000102040020545454787F4844443838440F
:10035000444420384444487F3854545418087E0993
:1003600001020C5252523E7F0804047800447D4042
:10037000002040443D007F1028440000417F4000A1
:100380007C041804787C0804047838444444387C9D
:1003900014141408081414187C7C08040408485425
:1003A000545420043F4440203C4040207C1C2040CA
:1003B000201C3C4030403C44281028440C505050F5
:1003C0003C4464544C44000836410000007F000067
:1003D00000413608001008081008784641467800A9
:1003E000407A10F35A00A0724E18090010A5D4E804
:1003F0000000E87648170000E40B54020000CA9A97
:100400003B000000E1F505000080969800000040E8
:10041000420F000000A0860100000010270000002D
:1004200000E803000000006400000000000A000073
:100430000000000100000000002C76D888DC674F27
:100440000823DFC1DFAE59E1B1B796E5E3E453C657
:100450003AE651997696E8E6C28426EB898C9B624F
:10046000ED407C6FFCEFBC9C9F40F2BAA56FA5F4F9
:1004700090055A2AF75C936B6CF9676DC11BFCE021
:10048000E40D47FEF520E6B500D0ED902E03009474
:100490003577050080841E080000204E0A00000009
:1004A000C80C333333330F986E12831141EF8D2113
:1004B00014893BE65516CFFEE6DB18D1844B381B7A
:1004C000F77C1D901DA4BBE424203284725E22813F
:1004D00000C9F124ECA1E53D270011241FBECFEF98
:1004E000DAE0DEBFCDBF14E0A0E0B1E0ECE8F8E474
:1004F00002C005900D92A838B107D9F717E0A8E817
:10050000B4E001C01D92AF31B107E1F70E94AA1318
:100510000C9444240C940000A0E0B0E0BC01CD0198
:100520000E94B11F20E030E040E854E40E94BA206D
:1005300020E034E244EF5AE40E94181F089520910D
:100540008400309185006091A2047091A3048827F3
:1005500077FD8095982FCB017727662740E050E004
:10056000620F731F841F951F0E94B31F20E030E0AD
:1005700040E854E40E94BA2020E034E244EF5AE418
:100580000E94181F0895FC016115710519F488E98E
:1005900093E00BC06130710519F48DE993E005C05B
:1005A0006230710529F482EA93E0948B838B08957D
:1005B0006330710521F487EA93E0948B838B08956F
:1005C000FC018091F3029091F4028930910519F4B5
:1005D00089EC93E029C08830910519F48DED93E002
:1005E00023C08730910519F481EF93E01DC0863058
:1005F000910519F485E094E017C08530910519F450
:1006000089E194E011C08430910519F48DE294E001
:100610000BC08330910519F481E494E005C0823069
:10062000910529F485E594E0948B838B08950197D7
:1006300021F489E694E0948B838B08958091840063
:10064000909185008091B0049091B10401969093AF
:10065000B1048093B0046EE170E00E948621892B82
:1006600049F48091B2049091B30401969093B3043D
:100670008093B2048091B4049091B5040597B9F4C5
:100680008091B2049091B3040A978CF08091B604E3
:100690009091B70401969093B7048093B60410929A
:1006A000B3041092B2041092B5041092B404809175
:1006B000B2049091B3040A976CF08091B4049091C5
:1006C000B50401969093B5048093B4041092B304DA
:1006D0001092B2048091B6049091B7048A309105CB
:1006E0004CF01092B9041092B80401969093B7049C
:1006F0008093B604089528EE33E048EC50E0FA0108
:100700003197F1F721503040D1F741E050E002C07D
:10071000440F551F8A95E2F720919004309191047F
:10072000B9018FB12F5F3F4F90E084239523892B30
:10073000B9F7609390047093910488EE93E028ECED
:1007400030E0F9013197F1F70197D9F70895CF9289
:10075000DF92EF92FF920F931F936C017A0188272B
:1007600077FD8095982F0E94B31F9B01AC01F60185
:1007700060817181828193810E949D1EF601608358
:100780007183828393830027F7FC0095102FC801A3
:10079000B7010E94B31F9B01AC01F6016481758112
:1007A000868197810E949D1EF601648375838683EE
:1007B00097831F910F91FF90EF90DF90CF90089556
:1007C0000F931F93FC0140875187628773870487CB
:1007D0001587268737871F910F9108950F931F93D1
:1007E0008C01FC016081718182819381208531853A
:1007F000428553850E949D1EF80160837183828328
:1008000093836481758186819781248535854685AA
:1008100057850E949D1EF8016483758386839783A4
:100820001F910F910895FC016130710519F481E069
:10083000828B0895128A0895CF92DF92EF92FF92F1
:100840000F931F936C017A01882777FD8095982F6D
:100850000E94B31FF6016083718382839383002714
:10086000F7FC0095102FC801B7010E94B31FF601D5
:1008700064837583868397831F910F91FF90EF9018
:10088000DF90CF9008951F920F920FB60F92112410
:100890008F939F938091A2049091A30401969093CB
:1008A000A3048093A2049F918F910F900FBE0F908D
:1008B0001F901895EF92FF920F931F93DF93CF93A2
:1008C000CDB7DEB7E2970FB6F894DEBF0FBECDBF4F
:1008D0007C010E949F022DB73EB7285030400FB6D2
:1008E000F8943EBF0FBE2DBFEDB7FEB731968E0117
:1008F0000F5F1F4FADB7BEB712961C930E931197A3
:1009000020E031E033832283648375838683978379
:100910000E946623EDB7FEB738960FB6F894FEBF77
:100920000FBEEDBFC80161E170E00E94C11405C0B7
:100930000E945F140894E11CF11CD7018C9188235C
:10094000B9F78DE00E945F148AE00E945F14E2967E
:100950000FB6F894DEBF0FBECDBFCF91DF911F91D0
:100960000F91FF90EF900895FC016481758186815D
:1009700097810E941D210E94801FCB010895FC01D8
:1009800060817181828193810E941D210E94801F5C
:10099000CB0108958F929F92AF92BF92CF92DF9238
:1009A000EF92FF920F931F93DF93CF93CDB7DEB7F4
:1009B000C456D0400FB6F894DEBF0FBECDBF8091B5
:1009C000A4049091A504C3970CF478C06091D3045B
:1009D0007091D4048091D5049091D6040E941D2179
:1009E0006B017C016091D7047091D8048091D90487
:1009F0009091DA040E941D214B015C012DB73EB796
:100A0000285030400FB6F8943EBF0FBE2DBF0DB733
:100A10001EB70F5F1F4FCE010196EDB7FEB7928351
:100A2000818381E191E0F80193838283C701B6015C
:100A30000E94801FF80175836483C501B4010E9480
:100A4000801FF801778366830E94662380918A0461
:100A500090918B042DB73EB7285F3F4F0FB6F894A7
:100A60003EBF0FBE2DBF009729F4CE01C3966FE2A3
:100A700071E016C08130910529F4CE01C39662E57C
:100A800071E00EC08230910529F4CE01C39667E76C
:100A900071E006C0039731F4CE01C3966CE971E0B2
:100AA0000E942823CE0101960E945A04CE01C396CB
:100AB0000E945A041092A5041092A404CC59DF4F4E
:100AC0000FB6F894DEBF0FBECDBFCF91DF911F915F
:100AD0000F91FF90EF90DF90CF90BF90AF909F90DD
:100AE0008F9008950F931F93CF93DF93EC018B01A9
:100AF0008A898130E1F4688179818A819B812885A6
:100B000039854A855B850E949D1E688379838A8327
:100B10009B836C817D818E819F812C853D854E8557
:100B20005F850E949D1E6C837D838E839F8301154C
:100B3000110571F56C817D818E819F810E941D213F
:100B40000E94801F693071058CF06133710574F467
:100B5000688179818A819B810E941D210E94801F6A
:100B600077FD04C0653571050CF447C01A8A80E032
:100B700090E0A0E0B0E088839983AA83BB838C8354
:100B80009D83AE83BF83109293041092920435C06C
:100B90000130110591F56C817D818E819F810E94CC
:100BA0001D210E94801F69307105B4F06133710509
:100BB0009CF4688179818A819B810E941D210E9419
:100BC000801F77FD09C06535710534F48091F3020B
:100BD0009091F402892B89F41A8A80E090E0A0E0D9
:100BE000B0E088839983AA83BB838C839D83AE8383
:100BF000BF831092950410929404DF91CF911F91BE
:100C00000F910895CF93DF93EC0181E08A8B80915F
:100C1000920490919304892B09F0FBC081E090E04D
:100C2000909393048093920480918A0490918B0412
:100C30000097D9F56091D3047091D4048091D504C4
:100C40009091D6040E941D210E94801F6D5F7F4FEE
:100C5000882777FD8095982F0E94B31F688379833A
:100C60008A839B836091D7047091D8048091D904C2
:100C70009091DA040E941D210E94801F882777FD31
:100C80008095982F0E94B31F6C837D838E839F83F2
:100C900080E090E0A0E0B0E088879987AA87BB87D2
:100CA00080E090E0A0E8BFEBB0C081309105D9F5BD
:100CB0006091D3047091D4048091D5049091D604AE
:100CC0000E941D210E94801F6D5F7F4F882777FD46
:100CD0008095982F0E94B31F688379838A839B83B2
:100CE0006091D7047091D8048091D9049091DA046E
:100CF0000E941D210E94801F882777FD8095982FD4
:100D00000E94B31F6C837D838E839F8380E090E07D
:100D1000A0E0B0E088879987AA87BB8780E090E051
:100D2000A0E8BFE372C08230910599F56091D304C9
:100D30007091D4048091D5049091D6040E941D2115
:100D40000E94801F882777FD8095982F0E94B31FEF
:100D5000688379838A839B836091D7047091D804D8
:100D60008091D9049091DA040E941D210E94801F75
:100D70006F5F7F4F882777FD8095982F0E94B31F64
:100D80006C837D838E839F8380E090E0A0E8BFEB3F
:100D900034C00397F1F56091D3047091D40480912D
:100DA000D5049091D6040E941D210E94801F88279F
:100DB00077FD8095982F0E94B31F688379838A837B
:100DC0009B836091D7047091D8048091D90490914D
:100DD000DA040E941D210E94801F6F5F7F4F8827C9
:100DE00077FD8095982F0E94B31F6C837D838E833F
:100DF0009F8380E090E0A0E8BFE388879987AA8777
:100E0000BB8780E090E0A0E0B0E08C879D87AE8754
:100E1000BF87DF91CF9108956F927F928F929F92BB
:100E2000AF92BF92CF92DF92EF92FF920F931F93F8
:100E3000CF93DF933C01A090D304B090D404C09032
:100E4000D504D090D604C601B5010E941D210E9490
:100E5000801F4B01E090D704F090D8040091D90492
:100E60001091DA04C801B7010E941D210E94801F61
:100E7000EB0189B1869580FD04C087E7681671048F
:100E800039F5CA30D10524F110928B0410928A04EE
:100E9000C601B50120E030E040E050E00E949D1E18
:100EA0006093D3047093D4048093D5049093D604B4
:100EB000C801B70120E030E040E85FE30E949C1EDB
:100EC0006093D7047093D8048093D9049093DA0484
:100ED0001F9904C093E769167104D1F52596809196
:100EE000940390919503C817D90794F581E090E099
:100EF00090938B0480938A046091D3047091D404FE
:100F00008091D5049091D60420E030E040E050E09C
:100F10000E949D1E6093D3047093D4048093D504E3
:100F20009093D6046091D7047091D8048091D9042D
:100F30009091DA0420E030E040E85FE30E949D1EDB
:100F40006093D7047093D8048093D9049093DA0403
:100F500083B1869580FF04C082E0881691043CF43A
:100F600091E669167104A9F51814190494F582E044
:100F700090E090938B0480938A046091D3047091E5
:100F8000D4048091D5049091D60420E030E040E86C
:100F90005FE30E949C1E6093D3047093D4048093FB
:100FA000D5049093D6046091D7047091D8048091B1
:100FB000D9049091DA0420E030E040E050E00E9453
:100FC0009D1E6093D7047093D8048093D9049093A6
:100FD000DA04489904C084E668167104E9F588E0EB
:100FE00090E0880E991E8091920390919303881649
:100FF000990694F583E090E090938B0480938A04A3
:101000006091D3047091D4048091D5049091D6045A
:1010100020E030E040E85FE30E949D1E6093D3042F
:101020007093D4048093D5049093D6046091D70430
:101030007091D8048091D9049091DA0420E030E0D6
:1010400040E050E00E949D1E6093D7047093D80446
:101050008093D9049093DA04DF91CF911F910F917F
:10106000FF90EF90DF90CF90BF90AF909F908F90C8
:101070007F906F9008950F931F93DF93CF93CDB719
:10108000DEB7C055D0400FB6F894DEBF0FBECDBF5F
:101090008DB79EB740970FB6F8949EBF0FBE8DBF19
:1010A000EDB7FEB731968E010F5F1F4FADB7BEB7DC
:1010B00012961C930E93119782EC91E09383828396
:1010C0008091960390919703958384838091AE04D9
:1010D0009091AF04978386838091B8049091B9046E
:1010E000918780878091B6049091B7049387828717
:1010F0008091B4049091B504958784878091B2045F
:101100009091B304978786870E9466238DB79EB718
:1011100040960FB6F8949EBF0FBE8DBF80E060E092
:10112000A8010E943C1DC05BDF4F0FB6F894DEBFE4
:101130000FBECDBFCF91DF911F910F9108950E94F7
:10114000352264E070E00E9486219C012F5F3F4FB2
:101150002130310519F422E030E005C021153105B8
:1011600011F423E030E0C9010895AF92BF92CF920D
:10117000DF92EF92FF920F931F93CF93DF93A09094
:10118000D704B090D804C090D904D090DA0460910C
:10119000D3047091D4048091D5049091D6040E9418
:1011A0001D210E94801F882777FD8095982F0E941F
:1011B000B31F0E941D210E94801F7B010E943522C7
:1011C00064E570E00E9486218C01005110400E946D
:1011D000352260E370E00E948621EC012A970334F7
:1011E000110518F002E410E005C00115110511F415
:1011F00001E010E0C532D1051CF0C4E2D0E005C02A
:10120000CA30D10514F4CAE0D0E0E016F10638F493
:1012100087E090E0E80EF91E0E151F05C0F0C6012C
:10122000B5010E941D210E94801F882777FD8095AF
:10123000982F0E94B31F0E941D210E94801F6C17CF
:101240007D0764F56C5F7F4FC617D7073CF50E949A
:10125000352264E570E00E9486218C010650104022
:101260000E94352260E370E00E948621EC01259700
:101270000334110518F002E410E005C00115110552
:1012800011F401E010E0C532D1051CF0C4E2D0E059
:1012900005C0CA30D10514F4CAE0D0E0B8018827EF
:1012A00077FD8095982F0E94B31F6093FD04709383
:1012B000FE048093FF0490930005BE01882777FD0C
:1012C0008095982F0E94B31F6093010570930205CB
:1012D0008093030590930405DF91CF911F910F91A7
:1012E000FF90EF90DF90CF90BF90AF900895209146
:1012F000AC04285F8091AA04622F409192030E945F
:10130000A21B209194038091AA04622F4091920322
:101310000E94A21B409192032091AC04285F842F6D
:10132000609194030E94A21B4091AA042091AC04F6
:10133000285F842F609194030E94A21B08950E944D
:10134000671B0E9477090E943B0883ED94E00E948E
:101350000B1E8EEB94E00E940B1E82E195E00E9432
:101360000B1E8091A6049091A704019719F48DEFAC
:1013700094E002C088EE94E00E940B1E0E94611D62
:1013800008954F925F926F927F928F929F92AF9249
:10139000BF92CF92DF92EF92FF920F931F93CF9362
:1013A000DF932C018B01EA01FB0160817181828155
:1013B0009381F20120813181428153810E949C1EE0
:1013C0003B014C01F8016481758186819781F201AE
:1013D00024813581468157810E949C1E5B016C01EE
:1013E000C401B301A40193010E94BA207B018C01C6
:1013F000C601B501A60195010E94BA209B01AC016E
:10140000C801B7010E949D1E0E9441217B018C01F1
:101410002097E9F4C401B3012DEC3CEC4CE45FE30C
:101420000E94BA20A80197010E94181F3B014C019D
:10143000C601B5012DEC3CEC4CE45FE30E94BA2000
:10144000A80197010E94181F5B016C012CC0C130DC
:10145000D105B9F4C601B5012DEC3CEC4CEC5EE3D2
:101460000E94BA20A80197010E94181F5B016C011D
:10147000C401B3012DEC3CEC4CEC5EE30E94BA20BD
:101480000CC0229781F4C601B501A80197010E9402
:10149000181F5B016C01C401B301A80197010E94F0
:1014A000181F3B014C01F20160867186828693868B
:1014B000A486B586C686D786DF91CF911F910F91FE
:1014C000FF90EF90DF90CF90BF90AF909F908F9064
:1014D0007F906F905F904F900895CF93DF93EC01D2
:1014E0008091940490919504892BD9F56091FD0425
:1014F0007091FE048091FF04909100050E941D21CF
:101500000E94801F882777FD8095982F0E94B31F27
:10151000688379838A839B836091010570910205BA
:1015200080910305909104050E941D210E94801F57
:10153000882777FD8095982F0E94B31F6C837D8349
:101540008E839F8381E090E0909395048093940430
:1015500081E08A8BCE0163ED74E042E050E00E94AE
:10156000C109DF91CF910895EF92FF920F931F93DE
:10157000CF93DF93EC018091A6049091A70400978C
:1015800009F04FC0688179818A819B8128853985DE
:101590004A855B850E949D1E7B018C01688379834F
:1015A0008A839B836C817D818E819F812C853D8583
:1015B0004E855F850E949D1E9B01AC012C833D835F
:1015C0004E835F830E941D210E94801F882777FD24
:1015D0008095982F0E94B31F0E941D210E94801F9A
:1015E0006B3071050CF46AC06A3271050CF066C08C
:1015F000C801B7010E941D210E94801F882777FD26
:101600008095982F0E94B31F0E941D210E94801F69
:10161000623071050CF452C06D3471050CF45FC07A
:101620004DC0019709F05BC0688179818A819B81F7
:10163000288539854A855B850E949D1E7B018C012A
:10164000688379838A839B836C817D818E819F816E
:101650002C853D854E855F850E949D1E9B01AC01BA
:101660002C833D834E835F830E941D210E94801F37
:10167000882777FD8095982F0E94B31F0E941D2117
:101680000E94801F6B307105CCF066327105B4F496
:10169000C801B7010E941D210E94801F882777FD85
:1016A0008095982F0E94B31F0E941D210E94801FC9
:1016B000623071051CF0633471058CF0CE0163ED6E
:1016C00074E040E050E00E94C1091092970410922B
:1016D00096040E949F0890939D0480939C0410920E
:1016E0009B0410929A04DF91CF911F910F91FF906C
:1016F000EF900895AF92BF92CF92DF92EF92FF9258
:101700000F931F93CF93DF93A090D704B090D8048A
:10171000C090D904D090DA046091D3047091D404BD
:101720008091D5049091D6040E941D210E94801FB3
:10173000882777FD8095982F0E94B31F0E941D2156
:101740000E94801F7B0180919004909191040E94DF
:101750003A220E94352264E570E00E9486218C01C5
:10176000065010400E94352260E370E00E948621FE
:10177000EC0125970B34110518F00AE410E005C0C0
:101780000230110510F402E010E0CA32D1051CF05D
:10179000C9E2D0E005C0CA30D10514F4CAE0D0E0F7
:1017A000E016F10638F487E090E0E80EF91E0E1519
:1017B0001F05C0F0C601B5010E941D210E94801FB7
:1017C000882777FD8095982F0E94B31F0E941D21C6
:1017D0000E94801F6C177D0764F56C5F7F4FC617F2
:1017E000D7073CF50E94352264E570E00E9486210F
:1017F0008C01065010400E94352260E370E00E9488
:101800008621EC0125970B34110518F00AE410E04D
:1018100005C00230110510F402E010E0CA32D10513
:101820001CF0C9E2D0E005C0CA30D10514F4CAE00A
:10183000D0E0B801882777FD8095982F0E94B31FCC
:101840006093E8047093E9048093EA049093EB04B6
:10185000BE01882777FD8095982F0E94B31F609363
:10186000EC047093ED048093EE049093EF04DF9109
:10187000CF911F910F91FF90EF90DF90CF90BF908D
:10188000AF900895CF93DF93EC018091F302909194
:10189000F402892B09F04CC01092A7041092A60400
:1018A0001092A9041092A804109297041092960422
:1018B0008AE090E09093F4028093F3028091AE046A
:1018C0009091AF040A969093AF048093AE040E9467
:1018D0007A0B80E090E0A0EAB1EC8093FD04909355
:1018E000FE04A093FF04B09300058093010590933C
:1018F0000205A0930305B093040585EB93E09C8B50
:101900008B8B80919004909191040A96909391040E
:10191000809390040E949F0890939D0480939C0460
:1019200010929B0410929A0488ED91E00E945A0450
:10193000DF91CF9108950F931F93CF93DF93809101
:101940009004909191040E943A220E9435228C01C9
:101950000E9435226BE270E00E948621EC018B32FE
:1019600091051CF0CAE2D0E005C08930910514F45D
:10197000C9E0D0E0C80164E570E00E9486219C01C6
:10198000285030402C34310510F02BE430E0B90100
:10199000882777FD8095982F0E94B31F6093D3040A
:1019A0007093D4048093D5049093D604BE01882705
:1019B00077FD8095982F0E94B31F6093D704709392
:1019C000D8048093D9049093DA04DF91CF911F91CA
:1019D0000F9108956F927F928F929F92AF92BF92D4
:1019E000CF92DF92EF92FF920F931F93CF93DF93EB
:1019F000EC017B018A016C817D818E819F810E9437
:101A00001D210E94801F882777FD8095982F0E94B6
:101A1000B31F0E941D210E94801F6B015B0108946F
:101A2000A11CB11C688179818A819B810E941D2142
:101A30000E94801F882777FD8095982F0E94B31FF2
:101A40000E941D210E94801F4B013B010894611CD4
:101A5000711C0130110509F070C0F70164817581B6
:101A6000868197810E941D210E94801F882777FD13
:101A70008095982F0E94B31F0E941D210E94801FF5
:101A8000F7012081318142815381CB0104968C156D
:101A90009D050CF440C1A616B7060CF43CC1CA0162
:101AA000B9010E941D210E94801F882777FD809523
:101AB000982F0E94B31F0E941D210E94801FCB01FE
:101AC0000796881599050CF426C1661677060CF45E
:101AD00022C184EF91E00E945A041A8A1092930462
:101AE000109292040E949B0C80E090E0A0E0B0E095
:101AF00088839983AA83BB838C839D83AE83BF83B2
:101B00008091960390919703019790939703809308
:101B100096031092A1041092A004809190049091D9
:101B200091040A9690939104809390040E949F08D8
:101B300090939F0480939E04EEC08091A6049091A0
:101B4000A704009709F07DC0F70164817581868143
:101B500097810E941D210E94801F882777FD809514
:101B6000982F0E94B31F0E941D210E94801FF70121
:101B70002081318142815381CB0104968C159D05D2
:101B80000CF4C9C0A616B7060CF4C5C0CA01B90149
:101B90000E941D210E94801F882777FD8095982F25
:101BA0000E94B31F0E941D210E94801FCB01059639
:101BB000881599050CF4AFC0661677060CF4ABC017
:101BC00080E192E00E945A041A8A109293041092C3
:101BD00092040E947A0B80E090E0A0E0B0E088835D
:101BE0009983AA83BB838C839D83AE83BF8310922A
:101BF0009704109296048091A8049091A9040196EC
:101C00009093A9048093A8048091AE049091AF04AE
:101C100001969093AF048093AE0410929B041092AF
:101C20009A0480919004909191040A969093910463
:101C3000809390040E949F0890939D0480939C043D
:101C40006AC0019709F067C0F701648175818681D8
:101C500097810E941D210E94801F882777FD809513
:101C6000982F0E94B31F0E941D2120E030E040E821
:101C70005FE30E949D1E0E94801FF7012081318139
:101C800042815381CB0109968C159D050CF443C00C
:101C9000A616B7060CF43FC0CA01B9010E941D2167
:101CA0000E94801F882777FD8095982F0E94B31F80
:101CB0000E941D210E94801FCB010F968815990557
:101CC00054F1661677063CF18091F3029091F4028C
:101CD00001979093F4028093F3028DEF94E00E94B9
:101CE000E0021A8A109293041092920480E090E02D
:101CF000A0E0B0E088839983AA83BB838C839D8313
:101D0000AE83BF8380919004909191040A96909342
:101D1000910480939004DF91CF911F910F91FF90D8
:101D2000EF90DF90CF90BF90AF909F908F907F907B
:101D30006F900895AF92BF92CF92DF92EF92FF9291
:101D40000F931F93CF93DF938C01EB01FC01648110
:101D50007581868197810E941D210E94801F88279E
:101D600077FD8095982F0E94B31F0E941D210E942D
:101D7000801F7B0164E0C62ED12CCE0CDF1CF80145
:101D800060817181828193810E941D210E94801F48
:101D9000882777FD8095982F0E94B31F0E941D21F0
:101DA0000E94801F8B0157E0A52EB12CA60EB71EF6
:101DB0008091A6049091A7040097E9F56C817D813C
:101DC0008E819F810E941D210E94801F882777FDA0
:101DD0008095982F0E94B31F0E941D210E94801F92
:101DE000288139814A815B81CB0104968E159F053C
:101DF0000CF472C0C616D7060CF46EC0CA01B90145
:101E00000E941D210E94801F882777FD8095982FB2
:101E10000E94B31F0E941D210E94801FCB010596C6
:101E2000801791070CF458C0A616B7060CF454C0DE
:101E30008BE292E03BC0019709F04EC06C817D813E
:101E40008E819F810E941D210E94801F882777FD1F
:101E50008095982F0E94B31F0E941D210E94801F11
:101E6000288139814A815B81CB0109968E159F05B6
:101E70009CF1C616D70684F1CA01B9010E941D2142
:101E80000E94801F882777FD8095982F0E94B31F9E
:101E90000E941D210E94801FCB010F968017910781
:101EA000DCF0A616B706C4F084EF91E00E945A0455
:101EB0000E949B0C809196039091970301979093B9
:101EC00097038093960380919004909191040A96D1
:101ED0009093910480939004DF91CF911F910F9183
:101EE000FF90EF90DF90CF90BF90AF9008951F923A
:101EF0000F920FB60F9211242F933F934F935F933E
:101F00006F937F938F939F93AF93BF93EF93FF93C1
:101F10008091A4049091A50401969093A5048093C8
:101F2000A4048091A6049091A704009729F483ED5E
:101F300094E068EE74E006C0019731F483ED94E01C
:101F40006DEF74E00E949A0EFF91EF91BF91AF91F7
:101F50009F918F917F916F915F914F913F912F91C1
:101F60000F900FBE0F901F9018958F929F92AF9277
:101F7000BF92CF92DF92EF92FF920F931F93CF9376
:101F8000DF9380919004909191040E943A220E94E4
:101F900035225C010E9435226BE270E00E948621AE
:101FA0008C010E94352264E570E00E9486212AEFB0
:101FB000822E2FEF922E880E991E0E94352260E30A
:101FC00070E00E948621EC0125970B3211051CF070
:101FD0000AE210E005C00930110514F409E010E030
:101FE0008BE48816910420F08AE4882E912C06C098
:101FF0008114910419F4B1E08B2E912CCB32D105D0
:102000001CF0CAE2D0E005C0CA30D10514F4CAE021
:10201000D0E0C50164E570E00E948621BC016850F3
:1020200070406C34710510F06BE470E080E090E07B
:102030000E94B11F6B017C01B801882777FD809554
:10204000982F0E94B31F8B019C0183ED94E0B70190
:10205000A601A8E0EA2EF5E0CF2EE8E9AE2EE3E0F7
:10206000BE2E0E94E31DB40180E090E00E94B11FEB
:102070006B017C01BE01882777FD8095982F0E9417
:10208000B31F8B019C0188EE94E0B701A601B6E076
:10209000EB2EA5E0CA2EFCEAAF2EF3E0BF2E0E9485
:1020A000E31D8EEB94E040E050E060E070E08A01D8
:1020B0009B01E2E0EE2EB2E0CB2EA1EBAA2EA3E034
:1020C000BA2E0E94E31D8DEF94E040E050E060EAFC
:1020D00071EC8A019B01F0E1EF2EEAE0CE2EB5EB28
:1020E000AB2EB3E0BB2E0E94E31D82E195E040E001
:1020F00050E060EA71EC8A019B01A2E0EA2EF2E076
:10210000CF2EE3EBAE2EE3E0BE2E0E94E31D109235
:10211000D0041092240580919004909191040A9625
:102120009093910480939004DF91CF911F910F9130
:10213000FF90EF90DF90CF90BF90AF909F908F90E7
:1021400008950E94671B60919003645080918E03F4
:1021500042E452E00E943C1D0E94611D88EB9BE01E
:1021600028EC30E0F9013197F1F70197D9F7609148
:102170009003645080918E0344E452E00E943C1D21
:102180000E94611D88EB9BE028EC30E0F90131975B
:10219000F1F70197D9F760919003645080918E0315
:1021A00046E452E00E943C1D0E94611D88EB9BE0CA
:1021B00028EC30E0F9013197F1F70197D9F7109247
:1021C0009B0410929A040E94B50F0E949F090895E3
:1021D0000F931F9304E510E0809140039091410319
:1021E0009801281B390BC90162E070E00E9486212A
:1021F000862F40910403509105036091AC040E9426
:102200003C1D80914203909143039801281B390B98
:10221000C90162E070E00E948621862F6091AC04C3
:10222000685F40910C0350910D030E943C1D80910A
:102230004403909145039801281B390BC90162E0C2
:1022400070E00E948621862F6091AC04605F40910F
:102250001A0350911B030E943C1D809146039091EC
:1022600047039801281B390BC90162E070E00E9406
:102270008621862F6091AC04685E409125035091C1
:1022800026030E943C1D80914803909149039801C8
:10229000281B390BC90162E070E00E948621862F5D
:1022A0006091AC04605E40913703509138030E9406
:1022B0003C1D80914A0390914B039801281B390BD8
:1022C000C90162E070E00E948621862F6091AC0413
:1022D000685D40913E0350913F030E943C1D0E9467
:1022E000611D7E9B03C086E090E004C07D9BF9CF1A
:1022F00085E090E00E947B030E94A11088EE94E0AC
:1023000063ED74E040E050E00E94C1090E949F0824
:1023100090939D0480939C041F910F9108950E94B7
:10232000671B8AE090E09093970380939603109246
:10233000AF041092AE041092B1041092B004109247
:1023400089041092880410928B0410928A041092CF
:10235000B3041092B2041092B5041092B404109217
:10236000B7041092B6041092B9041092B8041092F7
:10237000A9041092A8041092A7041092A604109227
:102380009B0410929A041092A1041092A0049093BE
:10239000F4028093F30210929704109296040E9424
:1023A000E81008950F931F9381E090E090938904C3
:1023B000809388040E94671B04E510E080918603E7
:1023C000909187039801281B390BC90162E070E0E6
:1023D0000E948621862F6091AC04685F409156036D
:1023E000509157030E943C1D80918803909189036E
:1023F0009801281B390BC90162E070E00E94862118
:10240000862F6091AC046C5E40916303509164032D
:102410000E943C1D80918A0390918B039801281B98
:10242000390BC90162E070E00E948621862F60911D
:10243000AC04645E40917403509175030E943C1D8E
:1024400080918C0390918D039801281B390BC90151
:1024500062E070E00E948621862F6091AC046C5D82
:1024600040918403509185030E943C1D0E94611D90
:102470007E9B03C086E090E004C07D9BF9CF85E0A1
:1024800090E00E947B030E948F111F910F9108958D
:102490001F93CF93DF930E940C14182F0E941E03EA
:1024A000812F992787FD90950E940C078FB1829507
:1024B00086958695837080FD02C0163621F48EEBDA
:1024C00094E00E9402068091B0049091B1046EE104
:1024D00070E00E948621892B09F061C080919A04E6
:1024E00090919B04019690939B0480939A04209171
:1024F000A0043091A1042F5F3F4F3093A10420939B
:10250000A00420919C0430919D048217930741F50B
:10251000C091A604D091A704209779F488EE94E0A6
:1025200063ED74E040E050E00E94C10981E090E07A
:1025300090939704809396040FC0C130D10581F425
:102540008DEF94E063ED74E041E050E00E94C1093A
:10255000D0939704C093960410929B0410929A040F
:102560002091A0043091A10480919E0490919F0439
:1025700028173907A1F48091A6049091A704019728
:1025800071F482E195E00E946D0A1092A10410920C
:10259000A0040E949F0890939F0480939E048091C2
:1025A000960490919704019799F48091A6049091D4
:1025B000A704009719F488EE94E004C0019741F451
:1025C0008DEF94E00E94B40A10929B0410929A043A
:1025D0008091A8049091A9040597E9F580E090E026
:1025E000A0EAB0E48093E8049093E904A093EA049D
:1025F000B093EB0480E090E0A0E0B0E08093EC04C6
:102600009093ED04A093EE04B093EF0481E090E08A
:102610009093A7048093A6040E94B5088091A80413
:102620009091A90401969093A9048093A8040E9414
:102630009F0890939D0480939C040E949F08909310
:102640009F0480939E0410929B0410929A0410920F
:10265000A1041092A00482E195E061E070E00E9484
:1026600072058DEF94E00E94420C80919603909148
:102670009703892B11F40E94D21160918A04709102
:102680008B0483ED94E00E94C3028EEB94E060E043
:1026900070E00E9472058091A6049091A7040097B3
:1026A00029F48EEB94E068EE74E006C0019741F4E3
:1026B0008EEB94E06DEF74E040E050E00E94EA0C95
:1026C00082E195E063ED74E041E050E00E94EA0CA5
:1026D0000E94CA040E949F09DF91CF911F91089523
:1026E000E1E6F0E080E8808381E08083229A239A0B
:1026F00085988698209827982198519850981092FC
:102700008000E1E8F0E080818160808380818D7FBE
:10271000808380818460808392E094BD85E085BD64
:1027200085E787BD90936E0089E09DE390938900D3
:1027300080938800EFE6F0E0808181608083789468
:102740003F9A479A0E94F0138FE30E94951D0E94C2
:10275000671B08950E9470130E9409148823E1F3F7
:102760000E940B168823C1F388E492E00E945A0469
:1027700081E692E00E945A0486E992E00E945A049F
:1027800089EA92E00E945A0484EB92E00E945A0483
:1027900081EC92E00E945A048EEC92E00E945A046E
:1027A0008CED92E00E945A0460919003645089E09D
:1027B00045EE52E00E943C1D0E94611D80E197E2BF
:1027C00028EC30E0F9013197F1F70197D9F70E9431
:1027D000671B0E94E8100E949F090E944812FDCFCB
:1027E00081E08093D70080EA8093D80082E189BDA0
:1027F00009B400FEFDCF80E98093D8001092E0007C
:102800001092BA041092BB048CE08093E20078949A
:1028100008958091BA0408952FB7F8948091BA046E
:10282000882369F083E08093E9009BE68091E800CB
:1028300085FD09C082FF03C09093E800F7CF2FBF4A
:102840002FEF3FEF0CC09091F1008091E80085FDE3
:1028500003C08BE68093E8002FBF292F30E0C90129
:1028600008952FB7F8948091BA04882311F490E06A
:1028700010C083E08093E9009091F200992349F41D
:102880008091E80082FF05C085FD03C08BE6809340
:10289000E8002FBF892F08958091BA04882371F032
:1028A0009FB7F89483E08093E9002BE602C0209361
:1028B000E8008091E80085FDFACF9FBF0895482F7A
:1028C0008091BA048823D9F12FB7F89484E08093DB
:1028D000E9008091BD04882341F08091E80085FDE6
:1028E00002C02FBF12C01092BD049091E400975E09
:1028F00034E08091E80085FD13C02FBF8091E40093
:10290000891729F481E08093BD048FEF08958091A9
:10291000BA048823A1F02FB7F8943093E900E9CFE7
:102920004093F1008091E80085FD03C08AE3809325
:10293000E80085E08093BC042FBF80E008958FEF0E
:102940000895282F8091BA04882351F09FB7F894F6
:1029500084E08093E9008091E80085FD03C09FBF7B
:102960008FEF08952093F1008091E80085FD03C06A
:102970008AE38093E80085E08093BC049FBF80E0F9
:102980000895CF93DF93EC018091BA04882309F472
:102990001CC13FB7F89484E08093E9008091BD04A6
:1029A000882309F408C18091E80085FD02C03FBF7B
:1029B0000CC11092BD04FFC09091E400975E80911D
:1029C000E80085FD13C03FBF8091E400891721F422
:1029D00081E08093BD04F9C08091BA04882309F492
:1029E000F4C03FB7F894B093E900E9CF8091F200CA
:1029F000242F281B822F90E06817790708F4262FD0
:102A0000822F90E08134910508F0C6C08A5A9F4F0A
:102A1000FC01EE0FFF1F0590F491E02D09948991C0
:102A20008093F10089918093F10089918093F10066
:102A300089918093F10089918093F100899180932D
:102A4000F10089918093F10089918093F10089913F
:102A50008093F10089918093F10089918093F10036
:102A600089918093F10089918093F10089918093FD
:102A7000F10089918093F10089918093F10089910F
:102A80008093F10089918093F10089918093F10006
:102A900089918093F10089918093F10089918093CD
:102AA000F10089918093F10089918093F1008991DF
:102AB0008093F10089918093F10089918093F100D6
:102AC00089918093F10089918093F100899180939D
:102AD000F10089918093F10089918093F1008991AF
:102AE0008093F10089918093F10089918093F100A6
:102AF00089918093F10089918093F100899180936D
:102B0000F10089918093F10089918093F10089917E
:102B10008093F10089918093F10089918093F10075
:102B200089918093F10089918093F100899180933C
:102B3000F10089918093F10089918093F10089914E
:102B40008093F10089918093F10089918093F10045
:102B500089918093F10089918093F100899180930C
:102B6000F10089918093F10089918093F10089911E
:102B70008093F10089918093F10089918093F10015
:102B800089918093F10089918093F10089918093DC
:102B9000F10089918093F10089918093F1008091F7
:102BA000E80085FD02C05093E800621B7109A09304
:102BB000BC043FBF04C0B4E040E45AE3A5E06115A3
:102BC000710509F0F9CE80E001C08FEFDF91CF9160
:102BD00008959FB7F8948091BC04882341F084E065
:102BE0008093E9008AE38093E8001092BC049FBFC1
:102BF000089560917D0470917E0480917F0490918E
:102C0000800408958091810408958091820408953C
:102C10008091830408958091BB040895282F9FB765
:102C2000F8948091BA04882339F082E08093E90017
:102C30008091E80085FD03C09FBF8FEF089581EA72
:102C40008093F10080E28093F1001092F1001092E5
:102C5000F1001092F1001092F10081E08093F100F8
:102C60001092F1002093F1008AE38093E8009FBF67
:102C700080E008951F920F920FB60F9211248F9348
:102C80009F938091E1001092E100982F83FF11C083
:102C90001092E90081E08093EB001092EC0082E159
:102CA0008093ED0088E08093F0001092BA041092B7
:102CB000BB0492FF13C08091BA04882379F08091FD
:102CC000BC04882359F081508093BC04882331F4DC
:102CD00084E08093E9008AE38093E8009F918F91DC
:102CE0000F900FBE0F901F9018951F920F920FB666
:102CF0000F9211240F931F932F933F934F935F9342
:102D00006F937F938F939F93AF93BF93EF93FF93B3
:102D10001092E9008091E80083FF3CC14091F100EE
:102D20003091F1008091F100682F70E02091F10066
:102D3000922F80E0682B792B8091F100A82FB0E0D2
:102D40002091F100922F80E0A82BB92B1091F10077
:102D50000091F10082EF8093E800363009F05AC00C
:102D600025E331E0A90145505040F901379785919D
:102D700094918617970701F5FA01859194918A1726
:102D80009B07D1F49A012E5F3F4FF9016591749131
:102D90002E5F3F4FF9014491212F30E0902F80E0CA
:102DA000282B392B2F3F310519F010F02FEF30E091
:102DB000241758F4422F09C0295F3F4F495F5F4FE6
:102DC000F1E02F353F0789F6E5C05EEF8091E8001E
:102DD000282F30E0C90185709070892BB9F322FD4E
:102DE000DCC0342F413108F030E1232FCB0106C085
:102DF000FC010196E491E093F10021502223C1F7F8
:102E0000630F711D431B5093E8004423F9F63031E2
:102E1000E9F2C3C0353061F48EEF8093E800809111
:102E2000E80080FFFCCF862F80688093E300B5C068
:102E3000393051F5442309F0ADC06093BA041092C3
:102E4000BB041092BC048EEF8093E80088E591E00B
:102E500021E02093E900FC010196E491E093EB006E
:102E6000EE2369F0AC014F5F5F4FFC0184918093CA
:102E7000EC00CA010196FA0134913093ED002F5F06
:102E8000253039F78EE181C0383061F4403809F0DF
:102E900081C08091E80080FFFCCF8091BA048093CC
:102EA000F10050C0313289F4413A09F073C0809189
:102EB000E80080FFFCCFEDE7F4E081918093F10022
:102EC00084E0E438F807C9F73DC03032A1F441325C
:102ED00009F060C08091E80082FFFCCFEDE7F4E0EC
:102EE0008091F100819384E0E438F807C9F78BEF13
:102EF0008093E80027C0323251F4413209F04AC0D1
:102F00006093BB048091E80080FFFCCF1BC033239B
:102F1000E9F48091E80080FFFCCF423811F080E0B6
:102F20000DC0A093E9008091EB0090E025E096951C
:102F300087952A95E1F781701092E9008093F1005E
:102F40001092F1008EEF8093E80027C0313011F02D
:102F5000333001F54230F1F4672BE1F42A2F2F775B
:102F6000822F81508430B0F48EEF8093E80020935C
:102F7000E900333079F089E18093EB0081E090E063
:102F800002C0880F991F2A95E2F78093EA001092F9
:102F9000EA0003C081E28093EB00FF91EF91BF91C3
:102FA000AF919F918F917F916F915F914F913F91E1
:102FB0002F911F910F910F900FBE0F901F9018959A
:102FC000A1E1B0E0E6EEF7E10C9499213C017F87A6
:102FD0006E876A01FC0117821682838181FD03C01E
:102FE0006FEF7FEF6FC39E012F5F3F4F398B288BB1
:102FF000F3012381EE85FF8523FD859123FF8191D8
:10300000FF87EE87882309F45AC3853251F4EE8591
:10301000FF8523FD859123FF8191FF87EE87853210
:1030200029F490E0B3010E943A23E2CF982F10E0F8
:10303000882499241032B0F49B3269F09C3228F431
:10304000903251F0933271F40BC09D3239F09033CD
:1030500049F4116028C01260146025C0186023C0B4
:10306000106121C017FD2AC0892F80538A3078F45F
:1030700016FF06C0FAE09F9E902C1124980E13C0F4
:103080003AE0839E802C1124880E10620CC09E3280
:1030900021F416FD14C3106406C09C3611F41068A8
:1030A00002C0983659F4EE85FF8523FD959123FFE4
:1030B0009191FF87EE87992309F0BCCF892F855422
:1030C000833020F4812F8061905E07C0892F855660
:1030D000833008F09FC1812F8F7E86FD02C076E08D
:1030E000972E6FE3F62EF822953619F4F0E4FF2AB6
:1030F00007C0963619F420E8F22A02C091109A947B
:10310000F7FE0AC03BE3391518F45CE3B52E02C0A4
:10311000B92CB39427E009C047E0491520F4BB243B
:1031200047E0942EF7CF292DBB24C60104969D8736
:103130008C87F6016081718182819381AE014F5F3E
:103140005F4F0B2D0E9445226C010981202E3324F4
:1031500000FF04C003FD02C01DE209C0F1FE02C071
:103160001BE205C0F2FC02C010E001C010E2C10188
:103170008C709070892BB9F1112311F483E001C098
:1031800084E0881510F088240AC0881AF3FC07C070
:1031900080E290E0B3010E943A238A94C9F7112398
:1031A00029F0812F90E0B3010E943A2323FE03C04F
:1031B00007EF11E00EC00BEF11E00BC0E114F104BA
:1031C00009F0805290E0B3010E943A230F5F1F4F35
:1031D00005C0EF2CFF24F0E1EF22FF24F8018491D9
:1031E000882361F714C1F7FE12C0BC0C24FE04C092
:1031F0008A81813309F4BA941B141CF0BB24B39464
:103200002DC0F8E0FB1550F538E0B32E27C0F6FCD2
:1032100025C0892D90E08C159D054CF02CEFC21631
:103220002FEFD20624F030E8F32A01C09A949920B7
:1032300049F0E2E0F0E0EC0FFD1FE90DF11D8081A7
:103240008033A1F3F7FE0AC0B92CB394892D90E026
:10325000C816D90614F0992401C09C18F7FC03C0C5
:1032600025E030E009C01C141D041CF021E030E012
:1032700003C096012F5F3F4F112311F02F5F3F4F87
:10328000992029F0892D90E00196280F391F882D6B
:1032900090E02817390714F0882401C0821A4F2CB7
:1032A0005524C20189709070892B39F008C080E2E2
:1032B00090E0B3010E943A238A948820C1F7112339
:1032C00029F0812F90E0B3010E943A2343FE07C00A
:1032D00008C080E390E0B3010E943A238A948820DA
:1032E000C1F7F7FE46C08601D7FE02C000E010E03D
:1032F00076010894E11CF11CE01AF10A41E050E06B
:103300004C0F5D1FE40EF51E26014B185108892D48
:1033100090E0AA24BB24A81AB90A5FEF0F3F150753
:1033200029F48EE290E0B3010E943A23C016D10640
:1033300034F0401651061CF4F701808101C080E38F
:10334000015010400894E11CF11C0A151B052CF0DB
:1033500090E0B3010E943A23E0CF0C151D0539F42B
:103360009A81963318F4953311F424FE81E390E0AA
:103370004BC08A81813309F00F7E90E0B3010E9437
:103380003A239920A1F08EE290E0B3010E943A2303
:1033900012E0E1E0F0E0EC0FFD1FE10FF11D1F5F17
:1033A000808190E0B3010E943A239A9491F744FC03
:1033B00003C085E690E002C085E490E0B3010E947E
:1033C0003A23D7FC05C0C114D10441F404FF06C060
:1033D000D094C194D108D3948DE201C08BE290E0E7
:1033E000B3010E943A2380E305C08F5F26EF3FEFD1
:1033F000C20ED31E3AE0C316D104BCF790E0B3016D
:103400000E943A23C601C096B3010E943A23CC849D
:10341000DD8452C1933631F0933799F0933509F03A
:1034200059C023C0F601808189835E010894A11CE4
:10343000B11C22E030E0C20ED31E21E0E22EF12CBE
:1034400012C0F601A080B18016FD03C06FEF7FEFC0
:1034500002C0692D70E022E030E0C20ED31EC5012B
:103460000E942F237C011F7713C0F601A080B1803A
:1034700016FD03C06FEF7FEF02C0692D70E022E000
:1034800030E0C20ED31EC5010E941D237C011068CE
:1034900013FF07C01BC080E290E0B3010E943A23F3
:1034A0008A94882D90E0E816F906A8F30FC0F5017C
:1034B00017FD859117FF81915F0190E0B3010E9494
:1034C0003A2381108A940894E108F108E114F10488
:1034D00071F7F2C0943611F0993689F517FF08C0DC
:1034E000F601208131814281538184E090E00AC05D
:1034F000F601808191819C01442737FD4095542F2E
:1035000082E090E0C80ED91E9FE6F92EF12257FF07
:1035100009C050954095309521953F4F4F4F5F4FD3
:1035200090E8F92ACA01B901AE014F5F5F4F2AE066
:1035300030E00E948A23E82EE889EE1A41C09537D0
:1035400021F41F7E2AE030E01CC0197F9F3661F015
:10355000903720F4983509F0B2C00FC0903739F099
:10356000983709F0ACC004C028E030E00AC0106110
:1035700014FD146020E130E004C014FD166020E169
:1035800032E017FF08C0F60160817181828193816A
:1035900044E050E008C0F60180819181BC0180E0E8
:1035A00090E042E050E0C40ED51EAE014F5F5F4F89
:1035B0000E948A23E82E5889E51A8FE7F82EF12217
:1035C000F6FE0BC08EEFF822E91438F4F4FE07C0C3
:1035D000F2FC05C09FEEF92202C01E2D01C0192D7C
:1035E000F4FE0DC0FE01EE0DF11D8081803319F453
:1035F000E9EEFE2208C01F5FF2FE05C003C08F2D5A
:10360000867809F01F5F0F2DF3FC14C0F0FE0FC089
:10361000181510F09E2C0BC09E2C980C911A182D8A
:1036200006C080E290E0B3010E943A231F5F1815A4
:10363000C0F304C0181510F4811A01C0882404FFD7
:103640000FC080E390E0B3010E943A2302FF1DC047
:1036500001FD03C088E790E00EC088E590E00BC054
:10366000802F867891F001FF02C08BE201C080E2DA
:10367000F7FC8DE290E0B3010E943A2306C080E39C
:1036800090E0B3010E943A239A94E914C0F3EA94BB
:10369000E1E0F0E0EC0FFD1FEE0DF11D808190E008
:1036A000B3010E943A23EE2091F706C080E290E039
:1036B000B3010E943A238A948820C1F799CCF30180
:1036C00066817781CB016196E2E10C94B521E7E256
:1036D000F5E0119287E0EF31F807D9F708958435C6
:1036E00080F5603370F5262F269526952695677010
:1036F00090E0442399F0E4E52E9FF0011124E80FB7
:10370000F91FE95DFA4F81E090E002C0880F991F30
:103710006A95E2F72081282B20830895E4E52E9F07
:10372000F0011124E80FF91FE95DFA4F81E090E004
:1037300002C0880F991F6A95E2F78095208128239F
:10374000208308952F923F924F925F926F927F92C3
:103750008F929F92AF92BF92CF92DF92EF92FF92A1
:103760000F931F93DF93CF93CDB7DEB72D970FB68F
:10377000F894DEBF0FBECDBFD82EC62E142F022F59
:103780008417F9F4A62EBB24E22EFF240EC08D2D43
:103790006A2D41E00E946F1BC01620F40894A11C02
:1037A000B11C03C00894A108B108C01628F4EA149B
:1037B000FB040CF4FEC0EBCFAE14BF040CF4F9C054
:1037C000E6CF282F30E06017F9F4C9015C01E42E40
:1037D000FF240EC08A2D6C2D41E00E946F1BD11674
:1037E00020F40894A11CB11C03C00894A108B108DE
:1037F000D11628F4EA14FB040CF4DBC0EBCFAE14B2
:10380000BF040CF4D6C0E6CF842F90E09A8389835E
:10381000C9015C0169817A81681B790B882777FD72
:103820008095982F0E94B31F6F83788789879A8726
:10383000202E33244C2C5524B10164197509882796
:1038400077FD8095982F0E94B31F3B014C012F817B
:10385000388549855A850E94181F6B837C838D8328
:103860009E8320E030E040E050E00E94B62087FFD9
:103870000DC0C401B30190582F81388549855A8500
:103880000E94181F6B837C838D839E830F2EF0E034
:10389000CF2EF0E0DF2EF0E0EF2EF0E0FF2EF02D47
:1038A00070C0AB868A2D642D41E00E946F1BC7015A
:1038B000B6012B813C814D815E810E949D1E31C0ED
:1038C0008B85642D41E00E946F1B1D861C86C40100
:1038D000B30120E030E040E050E00E94B62018162E
:1038E00024F4E1E0F0E0FD87EC8700E010E0C401A3
:1038F000B30120E030E040E050E00E94141F882334
:1039000014F401E010E08C859D85801B910B480E1E
:10391000591EC701B60120E030E040E85FE30E9495
:103920009C1E6B017C0120E030E040E05FE30E94E0
:10393000B62088239CF0C401B30120E030E040E0D1
:1039400050E00E94B62018162CF4241435040CF014
:10395000B7CF04C0421453040CF0B2CF6F81788506
:1039600089859A8520E030E040E050E00E94B62052
:10397000181624F40894A11CB11C03C00894A108D3
:10398000B1086F81788589859A8520E030E040E034
:1039900050E00E94B620181634F4E981FA81EA1545
:1039A000FB053CF07ECF89819A81A816B9060CF000
:1039B00078CF2D960FB6F894DEBF0FBECDBFCF9156
:1039C000DF911F910F91FF90EF90DF90CF90BF900C
:1039D000AF909F908F907F906F905F904F903F90AF
:1039E0002F9008959F92AF92BF92CF92DF92EF9265
:1039F000FF920F931F93CF93DF93982EC62E85E0EF
:103A0000489FE0011124C05AD04000E081E0A82E78
:103A1000B12C18C0612F6C0DA501012E02C0440FFE
:103A2000551F0A94E2F74E215F21012E02C05595E1
:103A300047950A94E2F78D2D0E946F1B1F5F183087
:103A400049F70F5F053061F0FE01E00FF11DE15015
:103A5000FE4F10E0E491D02ED90CEE2EFF24EFCFD4
:103A6000DF91CF911F910F91FF90EF90DF90CF905A
:103A7000BF90AF909F900895EF92FF920F931F9386
:103A8000CF93DF93F82E062F142F242F352FC90143
:103A9000EC0195E0E92E08C08E9DC00111248F0D28
:103AA000602F0E94F21C21969E01211B822F4881CB
:103AB000442391F7DF91CF911F910F91FF90EF90E9
:103AC0000895CF93DF9380E060E00E94D61DC7E2A7
:103AD000D5E081E069910E94741D87E0CF31D8075D
:103AE000C1F7DF91CF91089595B18295880F807EBF
:103AF0009F7D982B95B95F9827E030E070E08F9814
:103B0000CB01022E02C0959587950A94E2F780FFBB
:103B100002C02E9A01C02E988F9A215030408FEF0C
:103B20002F3F380761F75F9A08951F93182F579A10
:103B3000249A259A269A879A2C985F9A2C9A80E044
:103B400061E20E94741D106880E0612F0E94741D64
:103B500080E064E00E94741D80E063E10E94741DB7
:103B600080E06CE00E94741D80E060E20E94741DA1
:103B700080E06CE00E94741D80E060E40E94741D8F
:103B800080E060E80E94741D1F910895CF93DF9339
:103B9000C0E0D0E081E060E00E94741D219681E0E9
:103BA000C83FD807B9F7DF91CF9108951F93182F19
:103BB000606480E00E94741D106880E0612F0E94A4
:103BC000741D1F910895AF92BF92CF92EF920F9301
:103BD0001F93FC01408351836283738304831583A5
:103BE00026833783E08AC18AB48AA38A81E0828BE4
:103BF00080E090E0A0E0B0E080879187A287B38763
:103C000084879587A687B7871F910F91EF90CF90F4
:103C1000BF90AF9008953F924F925F926F927F92C4
:103C20008F929F92AF92BF92CF92DF92EF92FF92CC
:103C30000F931F93CF93DF93EC018A89882309F4B4
:103C400069C0688970E0882777FD8095982F0E9469
:103C5000B31F20E030E040E05EE30E94BA200E9403
:103C6000011F0E94851F362E882447C0092D10E0B1
:103C7000B801882777FD8095982F0E94B31F20E018
:103C800030E040E05EE30E94BA200E94EE1F6B012C
:103C90007C01688179818A819B810E94851FA92C82
:103CA000A60E6C817D818E819F810E94851FB82C1C
:103CB000B60EC301B2010E94B31FA70196010E9474
:103CC0009D1E0E94801FEB89FC89E60FF71F408133
:103CD00050E0009510950770107002C055954795FB
:103CE0000A95E2F741708A2D6B2D0E946F1B939409
:103CF0008889981608F4BACF83948989881650F475
:103D0000839CC001112499242C01662457FC6094E3
:103D1000762CEECFDF91CF911F910F91FF90EF9016
:103D2000DF90CF90BF90AF909F908F907F906F90DB
:103D30005F904F903F9008955058BB27AA270ED010
:103D4000C4C1B5D130F0BAD120F031F49F3F11F4A5
:103D50001EF4AAC10EF4E095E7FB77C1E92FC6D1A6
:103D600080F3BA17620773078407950718F071F498
:103D70009EF5F5C10EF4E0950B2EBA2FA02D0B0188
:103D8000B90190010C01CA01A0011124FF27591BA0
:103D900099F0593F50F4503E68F11A16F040A22FA6
:103DA000232F342F4427585FF3CF46953795279517
:103DB000A795F0405395C9F77EF41F16BA0B620B16
:103DC000730B840BBAF09150A1F0FF0FBB1F661F5D
:103DD000771F881FC2F70EC0BA0F621F731F841FA0
:103DE00048F4879577956795B795F7959E3F08F0C6
:103DF000B3CF9395880F08F09927EE0F9795879585
:103E0000089596D180F09F3740F491110EF4A8C127
:103E100060E070E080E89FE3089526F01B16611DC6
:103E2000711D811D18C132C1ECD008F481E00895E4
:103E30000CD04BC143D140F03AD130F021F45F3F78
:103E400019F003C151118CC12FC150D198F399239E
:103E5000C9F35523B1F3951B550BBB27AA2762174E
:103E60007307840738F09F5F5F4F220F331F441F93
:103E7000AA1FA9F333D00E2E3AF0E0E830D09150CB
:103E80005040E695001CCAF729D0FE2F27D0660FB8
:103E9000771F881FBB1F261737074807AB07B0E8F7
:103EA00009F0BB0B802DBF01FF2793585F4F2AF00D
:103EB0009E3F510568F0C9C053C15F3FECF3983E87
:103EC000DCF3869577956795B795F7959F5FC9F76A
:103ED000880F911D9695879597F90895E1E0660FF3
:103EE000771F881FBB1F621773078407BA0720F06C
:103EF000621B730B840BBA0BEE1F88F7E0950895D5
:103F000004D06894B1112CC10895F8D088F09F575F
:103F100090F0B92F9927B751A0F0D1F0660F771F15
:103F2000881F991F1AF0BA95C9F712C0B13081F0F5
:103F300016D1B1E0089513C1672F782F8827B85F95
:103F400039F0B93FCCF3869577956795B395D9F756
:103F50003EF490958095709561957F4F8F4F9F4F60
:103F60000895E89409C097FB3EF49095809570956C
:103F700061957F4F8F4F9F4F9923A9F0F92F96E9B5
:103F8000BB279395F695879577956795B795F1112A
:103F9000F8CFFAF4BB0F11F460FF1BC06F5F7F4FC7
:103FA0008F4F9F4F16C0882311F096E911C07723D9
:103FB00021F09EE8872F762F05C0662371F096E8E2
:103FC000862F70E060E02AF09A95660F771F881FB1
:103FD000DAF7880F9695879597F90895A9D080F01C
:103FE0009F3740F491110EF0BBC060E070E080E8B4
:103FF0009FEB089526F41B16611D711D811D2BC0BA
:1040000045C0990F0008550FAA0BE0E8FEEF161601
:104010001706E807F907C0F012161306E407F507BC
:1040200098F0621B730B840B950B39F40A2661F030
:10403000232B242B252B21F408950A2609F4A140D3
:10404000A6958FEF811D811D089597F99F6780E8E0
:1040500070E060E00895882371F4772321F0985090
:10406000872B762F07C0662311F499270DC0905136
:10407000862B70E060E02AF09A95660F771F881F04
:10408000DAF7880F9695879597F908959F3F31F055
:10409000915020F4879577956795B795880F911D76
:1040A0009695879597F908959FEF80EC08950024E1
:1040B0000A941616170618060906089500240A948D
:1040C00012161306140605060895092E0394000C13
:1040D00011F4882352F0BB0F40F4BF2B11F460FFA2
:1040E00004C06F5F7F4F8F4F9F4F089557FD9058CB
:1040F000440F551F59F05F3F71F04795880F97FBAC
:10410000991F61F09F3F79F0879508951216130665
:104110001406551FF2CF4695F1DF08C01616170694
:104120001806991FF1CF86957105610508940895C9
:10413000E5DFA0F0BEE7B91788F4BB279F3860F42D
:104140001616B11D672F782F8827985FF7CF8695B1
:1041500077956795B11D93959639C8F30895E894BE
:10416000BB2766277727CB0197F908954ADF08F424
:104170008FEF08950BD0A9CF9ADF28F09FDF18F0BA
:10418000952309F062CF90CF1124EACFAFDFA0F3DF
:10419000959FD1F3950F50E0551F629FF001729FDC
:1041A000BB27F00DB11D639FAA27F00DB11DAA1FFB
:1041B000649F6627B00DA11D661F829F2227B00D48
:1041C000A11D621F739FB00DA11D621F839FA00DD3
:1041D000611D221F749F3327A00D611D231F849F23
:1041E000600D211D822F762F6A2F11249F5750407A
:1041F0008AF0E1F088234AF0EE0FFF1FBB1F661F15
:10420000771F881F91505040A9F79E3F510570F0CD
:104210001CCFA6CF5F3FECF3983EDCF386957795F5
:104220006795B795F795E7959F5FC1F7FE2B880FC8
:10423000911D9695879597F9089560DFE0F09E3778
:10424000D8F09639B8F49E3848F4672F782F88272D
:10425000985FF9CF86957795679593959539D0F3C3
:10426000B62FB1706B0F711D811D20F48795779566
:1042700067959395F0CE0ACF73CF11F40EF414CF57
:1042800005CF3CDFD0F39923D9F3CEF39F57550BDD
:1042900087FF35D00024A0E640EA9001805856956B
:1042A000979528F4805C660F771F881F20F02617EB
:1042B0003707480730F4621B730B840B2029312920
:1042C0004A2BA69517940794202531254A2758F79D
:1042D000660F771F881F20F026173707480730F42E
:1042E000620B730B840B200D311D411DA09581F7CE
:1042F000B901842F9158880F96958795089591500C
:104300005040660F771F881FD2F7089597FB092E3C
:1043100007260AD077FD04D043D006D000201AF437
:10432000709561957F4F0895F6F7909581959F4F11
:1043300008952F923F924F925F926F927F928F9249
:104340009F92AF92BF92CF92DF92EF92FF920F9324
:104350001F93CF93DF93CDB7DEB7CA1BDB0B0FB62E
:10436000F894DEBF0FBECDBF09942A8839884888EB
:104370005F846E847D848C849B84AA84B984C88481
:10438000DF80EE80FD800C811B81AA81B981CE0F78
:10439000D11D0FB6F894DEBF0FBECDBFED0108955D
:1043A000AA1BBB1B51E107C0AA1FBB1FA617B7075B
:1043B00010F0A61BB70B881F991F5A95A9F7809577
:1043C0009095BC01CD010895A0E0B0E0EAEEF1E2E5
:1043D0000C94A121EC01A880B980CA80DB80A114D3
:1043E000B104C104D10441F484E2A82E89EDB82EB1
:1043F0008BE5C82E87E0D82EC601B5012DE133EF3D
:1044000041E050E00E94072427EA31E440E050E018
:104410000E94E8237B018C01C601B5012DE133EF39
:1044200041E050E00E940724CA01B9012CEE34EFAC
:104430004FEF5FEF0E94E8236E0D7F1D801F911FDD
:1044400097FF04C061507040804090486883798332
:104450008A839B839B013F77C901CDB7DEB7EAE032
:104460000C94BD210E94E421089584E894E00E9408
:10447000E4210895A0E0B0E0809384049093850443
:10448000A0938604B09387040895283008F027E0AD
:104490003327DA01990F311D87FD91600096610580
:1044A000710539F432602E5F3D9330E32A95E1F7D0
:1044B00008959F3F30F080387105610509F03C5F39
:1044C0003C5F3D93913008F08068911DDF93CF935E
:1044D0001F930F93FF92EF92192F987F9695E92FD4
:1044E00096959695E90FFF27E75CFB4F99273327B1
:1044F000EE24FF24A701E70105900894079428F40F
:10450000360FE71EF81E491F511D660F771F881FC3
:10451000991F0694A1F70590079428F4E70EF81E5A
:10452000491F561FC11D770F881F991F661F0694CC
:10453000A1F70590079428F4F80E491F561FC71FCE
:10454000D11D880F991F661F771F0694A1F705904C
:10455000079420F4490F561FC71FD81F990F661FD5
:10456000771F881F0694A9F784911095177041F062
:10457000D695C79557954795F794E7941A95C1F73F
:10458000EFEDF3E068941590159135916591959153
:1045900005907FE27395E118F10A430B560BC90BA6
:1045A000D009C0F7E10CF11E431F561FC91FD01DD3
:1045B0007EF4703311F48A95E6CFE894015030F020
:1045C000080F0AF40027021708F4202F2395022F62
:1045D0007A3328F079E37D932A95E9F710C07D932B
:1045E0002A9589F6069497956795379517951794A8
:1045F000E118F10A430B560BC90BD00998F023952B
:104600007E9173957A3308F070E37C932013B8F7AA
:104610007E9170617D9330F0839571E37D9370E3BB
:104620002A95E1F71124EF90FF900F911F91CF9100
:10463000DF91992787FD90950895FC0105906150C1
:1046400070400110D8F7809590958E0F9F1F0895A8
:10465000FB01DC0101900D920020E1F70895FC01BF
:104660006150704001900110D8F7809590958E0FA1
:104670009F1F08950F931F93CF93DF938C01EB013E
:104680008B8181FF1BC082FF0DC02E813F818C81F9
:104690009D812817390764F4E881F9810193F98332
:1046A000E88306C0E885F985802F0995892B31F4C8
:1046B0008E819F8101969F838E8302C00FEF1FEF33
:1046C000C801DF91CF911F910F910895AEE0B0E046
:1046D000ECE6F3E20C94A7210D891E8986E08C8319
:1046E0001A8309838FEF9FE79E838D839E01275E48
:1046F0003F4FCE0101966F89788DA9010E94E01786
:104700002F813885020F131FF80110822E96E4E0E6
:104710000C94C321FA01AA27283051F1203181F1EC
:10472000E8946F936E7F6E5F7F4F8F4F9F4FAF4FB9
:10473000B1E03ED0B4E03CD0670F781F891F9A1FCC
:10474000A11D680F791F8A1F911DA11D6A0F711D80
:10475000811D911DA11D20D009F468943F912AE08C
:10476000269F11243019305D3193DEF6CF01089574
:10477000462F4770405D4193B3E00FD0C9F7F6CFA5
:10478000462F4F70405D4A3318F0495D31FD40526D
:10479000419302D0A9F7EACFB4E0A6959795879503
:1047A00077956795BA95C9F70097610571050895E2
:1047B0009B01AC010A2E069457954795379527958E
:1047C000BA95C9F7620F731F841F951FA01D089526
:1047D000629FD001739FF001829FE00DF11D649FE5
:1047E000E00DF11D929FF00D839FF00D749FF00D71
:1047F000659FF00D9927729FB00DE11DF91F639F12
:10480000B00DE11DF91FBD01CF011124089597FBE3
:10481000092E05260ED057FD04D014D00AD0001C56
:1048200038F450954095309521953F4F4F4F5F4F4D
:104830000895F6F790958095709561957F4F8F4F0D
:104840009F4F0895A1E21A2EAA1BBB1BFD010DC0AC
:10485000AA1FBB1FEE1FFF1FA217B307E407F50730
:1048600020F0A21BB30BE40BF50B661F771F881F0C
:10487000991F1A9469F760957095809590959B01A2
:0C488000AC01BD01CF010895F894FFCFFA
:10488C005B444542554720402025332E33665D203E
:10489C0000537061636563726166742773206C6F7B
:1048AC00636174696F6E202825642C25642900537C
:1048BC0070616365637261667427732063757272CD
:1048CC00656E742068656164696E67206973207514
:1048DC007000537061636563726166742773206343
:1048EC00757272656E742068656164696E672069A3
:1048FC007320646F776E00537061636563726166D9
:10490C007427732063757272656E742068656164B8
:10491C00696E67206973206C6566740053706163FF
:10492C0065637261667427732063757272656E7449
:10493C002068656164696E672069732072696768B5
:10494C0074004C3A256420533A256420543A25646B
:10495C0025643A2564256400506C61796572206485
:10496C00657374726F796564206D6F7468657273AA
:10497C00686970004D6F7468657273686970206443
:10498C00657374726F79656420706C6179657200FF
:10499C00416C69656E206B696C6C65642062792072
:1049AC0074686520706C6179657200506C61796512
:1049BC0072206B696C6C656420627920616C69652E
:1049CC006E0033003200310057656C636F6D6520EB
:1049DC00746F20416C69656E20416476616E63650D
:1049EC0000436F6E6E656374696F6E2062657477D9
:1049FC0065656E207465656E737920616E642063E5
:104A0C006F6D7075746572206973206E6F7720619D
:104A1C006374697665004B6579626F6172642063BB
:104A2C006F6E74726F6C733A00573A206D6F7665C7
:104A3C0020757000533A206D6F766520646F776E29
:104A4C0000413A206D6F7665206C65667400443ABF
:104A5C00206D6F766520726967687400463A207322
:104A6C00686F6F740055534220636F6E6E6563748C
:104A7C006564000A00416C69656E20416476616E64
:104A8C0063656400F502476C656E6E00060343684F
:104A9C0072697374656E73656E000E036E39383807
:104AAC0034303530001C035072657373206275749A
:104ABC00746F6E20746F002703706C61790039037A
:104ACC0046001900370028004B00140047414D45A3
:104ADC00204F564552004C03596F75722064656126
:104AEC0064210058035072657373206120627574E1
:104AFC00746F6E006503746F20706C617920616750
:104B0C0061696E0076032D003200460041002A00D8
:104B1C00180053002F000B00183C7EFFE7E7FF7EC8
:104B2C003C180F7FFE7F0FF0FE7FFEF084FCCCFC68
:104B3C0084C0C0C0C0FFFF00001FF83FFC6186F3BB
:104B4C00CFFFFFFE7F7E7E3FFCFFFC00001FF83F87
:104B5C00FC6186F3CFFFFFFE7F7E7E3FFCFFF00003
:104B6C00001FF83FFC6186F3CFFFFFFE7F7E7E3F88
:104B7C00FCFFE000001FF83FFC6186F3CFFFFFFE57
:104B8C007F7E7E3FFCFFC000001FF83FFC6186E18A
:104B9C0087FFFFF00F60063FFCFF0000001FF83F8F
:104BAC00FC6186E187FFFFF00F60063FFCFC000014
:104BBC00001FF83FFC6186E187FFFFF00F60063FA6
:104BCC00FCF00000001FF83FFC718EE187FFFFF046
:104BDC000F60063FFCE00000001FF83FB4718EE14F
:104BEC0087BF9FB00F60063FFC800000001FF833AA
:104BFC00AC718EE187A79FB00F60063FFC00E1000F
:084C0C00000000080100000097
:00000001FF
